:020000040000FA
:0400000007EF00F016
:0A0008007582CBED06F093EF09F0CE
:10060000002D2D2D2D2D2D54696D653A2D2D2D2D5F
:100610002D2D0025642E2564000024C03CF025C04B
:100620003DF026C03EF027C03FF028C040F029C072
:1006300041F02AC042F02BC043F043BE22EF03F04A
:1006400025EF03F0010E26EF03F0000E3A6E3B6A31
:100650003A503B10D8B42FEF03F031EF03F041EFE5
:1006600003F0431E421E411E401E3F1E3E1E3D1E05
:100670003C6C000E3D223E223F224022412242227B
:1006800043226EBE46EF03F048EF03F049EF03F05C
:100690006F926EBE56EF03F06E5006E16D04D8B057
:1006A00054EF03F056EF03F05CEF03F0000E376EEB
:1006B000010E366E60EF03F06DC036F06EC037F09D
:1006C0006BC038F06CC039F03A503B10D8A46BEFD7
:1006D00003F06DEF03F074EF03F06FA472EF03F01B
:1006E00074EF03F077EF03F03806D8A03906000E58
:1006F000456E1F0E446E000E0001A36FFCEF03F069
:100700004406D8A04506840E4424D96E000E452028
:10071000DA6E3CC007F03DC008F03EC009F03FC0B3
:100720000AF040C00BF041C00CF042C00DF043C0D5
:100730000EF00A0E0F6E000E106E000E116E000EFF
:10074000126E000E136E000E146E000E156E000E6B
:10075000166E19EC06F007C02CF008C02DF009C089
:100760002EF00AC02FF00BC030F00CC031F00DC0DD
:1007700032F00EC033F02CC019F02EC01AF02CEC61
:1007800009F01950300FDF6E3606D8A0370638064C
:10079000D8A039063CC007F03DC008F03EC009F0C3
:1007A0003FC00AF040C00BF041C00CF042C00DF059
:1007B00043C00EF00A0E0F6E000E106E000E116E8A
:1007C000000E126E000E136E000E146E000E156EEB
:1007D000000E166E55EC05F007C03CF008C03DF069
:1007E00009C03EF00AC03FF00BC040F00CC041F021
:1007F0000DC042F00EC043F045BE07EF04F0455077
:1008000008E14404D8A007EF04F009EF04F039EF41
:1008100004F03C503D103E103F104010411042107B
:100820004310D8A416EF04F018EF04F080EF03F0A3
:1008300037BE25EF04F0375006E13604D8B023EF79
:1008400004F025EF04F080EF03F039BE30EF04F040
:10085000395008E13804D8A030EF04F032EF04F04A
:1008600039EF04F06FB237EF04F039EF04F080EFA6
:1008700003F03A503B10D8A440EF04F042EF04F0EC
:1008800049EF04F06FA447EF04F049EF04F067EF7D
:1008900004F04406D8A045063A503B10D8A453EFC4
:1008A00004F055EF04F05BEF04F0000E356E2B0EF4
:1008B000346E5FEF04F0000E356E2D0E346E840E34
:1008C0004424D96E000E4520DA6E34C0DFFF22C00A
:1008D00017F023C018F0840E4424196E000E452032
:1008E0001A6E38C01BF039C01CF01AEC08F017C0A3
:1008F00022F018C023F0120048C0D9FF49C0DAFF27
:10090000DECFF6FFDDCFF7FF0800F550250AD8A4AB
:100910008CEF04F08EEF04F039EF05F048C0D9FFFA
:1009200049C0DAFFDE2A000EDD22000E6C6E000EDA
:100930006B6E6BC06FF06CC070F06D686E6848C015
:10094000D9FF49C0DAFFDECFF6FFDDCFF7FF0800A1
:10095000F550640AD8B4AFEF04F0B1EF04F0C3EF80
:1009600004F048C0D9FF49C0DAFFDECFF6FFDDCF83
:10097000F7FF0800F550690AD8A4C1EF04F0C3EFEF
:1009800004F003EF05F048C0D9FF49C0DAFFDE2AC2
:10099000000EDD224AC0D9FF4BC0DAFFDFCF4CF09A
:1009A000020EDE26DFCF4DF0000EDD224CC0D9FF57
:1009B0004DC0DAFFDECF4EF0DDCF4FF0000E4FBE60
:1009C000FF0E506E516E526E536E546E556E46C091
:1009D00022F047C023F04EC024F04FC025F050C095
:1009E00026F051C027F052C028F053C029F054C05F
:1009F0002AF055C02BF00DEC03F022C046F023C0C6
:100A000047F054EF05F048C0D9FF49C0DAFFDECF08
:100A1000F6FFDDCFF7FF0800F550250AD8A413EF45
:100A200005F015EF05F02CEF05F048C0D9FF49C0DF
:100A3000DAFFDE2A000EDD22000E086E250E076E9C
:100A400046C009F047C00AF0B5EC07F0000E476E4B
:100A5000010E466E54EF05F048C0D9FF49C0DAFFD9
:100A6000DE2A000EDD22000E476E000E466E54EFA9
:100A700005F048C0D9FF49C0DAFFDECFF6FFDDCF71
:100A8000F7FF0800F550076E086A46C009F047C036
:100A90000AF0B5EC07F048C0D9FF49C0DAFFDE2AFA
:100AA000000EDD2226EF05F01200000E186E16BEB5
:100AB0005EEF05F05CEF05F070EF05F0161E151EF9
:100AC000141E131E121E111E101E0F6C000E10227B
:100AD000112212221322142215221622010E186E40
:100AE0000EBE77EF05F075EF05F089EF05F00E1EED
:100AF0000D1E0C1E0B1E0A1E091E081E076C000E82
:100B0000082209220A220B220C220D220E22010E9B
:100B1000181A20EE19F0070EDE6AE806FDE20F5003
:100B20001010111012101310141015101610D8B444
:100B30009CEF05F09EEF05F0F0EF05F0010E176E4B
:100B4000ACEF05F0D8900F3610361136123613364A
:100B5000143615361636172A16AEB1EF05F0B3EF78
:100B600005F0A2EF05F0D89019361A361B361C3660
:100B70001D361E361F3620360F50075C10500858A1
:100B80001150095812500A5813500B5814500C5851
:100B900015500D5816500E58D8A0D1EF05F0D3EFD0
:100BA00005F0E4EF05F00F50075E1050085A1150A1
:100BB000095A12500A5A13500B5A14500C5A155015
:100BC0000D5A16500E5A1980D8901632153214321A
:100BD00013321232113210320F32172EB3EF05F0EA
:100BE0001850D8B4F6EF05F0F8EF05F008EF06F06E
:100BF000201E1F1E1E1E1D1E1C1E1B1E1A1E196CD3
:100C0000000E1A221B221C221D221E221F2220221D
:100C100019C007F01AC008F01BC009F01CC00AF088
:100C20001DC00BF01EC00CF01FC00DF020C00EF058
:100C30001200000E186E0EBE22EF06F020EF06F036
:100C400034EF06F00E1E0D1E0C1E0B1E0A1E091E92
:100C5000081E076C000E082209220A220B220C2211
:100C60000D220E22010E186E16BE3BEF06F039EF74
:100C700006F04BEF06F0161E151E141E131E121E54
:100C8000111E101E0F6C000E1022112212221322B0
:100C90001422152216220F501010111012101310CA
:100CA000141015101610D8B458EF06F05AEF06F0CD
:100CB000A2EF06F0010E176E68EF06F0D8900F361F
:100CC0001036113612361336143615361636172AE4
:100CD00016AE6DEF06F06FEF06F05EEF06F00F5008
:100CE000075C105008581150095812500A581350F8
:100CF0000B5814500C5815500D5816500E58D8A0BB
:100D000084EF06F086EF06F096EF06F00F50075ED0
:100D10001050085A1150095A12500A5A13500B5ABF
:100D200014500C5A15500D5A16500E5AD8901632AF
:100D30001532143213321232113210320F32172E92
:100D40006FEF06F01850D8B4A8EF06F0AAEF06F03F
:100D5000BAEF06F00E1E0D1E0C1E0B1E0A1E091EFB
:100D6000081E076C000E082209220A220B220C2200
:100D70000D220E2207C007F008C008F009C009F0D4
:100D80000AC00AF00BC00BF00CC00CF00DC00DF047
:100D90000EC00EF0120006009EA2D1EF06F0D3EFB7
:100DA00006F047EF07F071507210D8B4DAEF06F092
:100DB000DCEF06F0EFEF06F0734A742A640E731846
:100DC0007410D8A4E6EF06F0E8EF06F0EFEF06F0B7
:100DD0000001824B832B000E746E000E736E82BA7C
:100DE000F4EF06F0F6EF06F004EF07F0710472106E
:100DF000D8A4FDEF06F0FFEF06F003EF07F0000EBA
:100E0000726E000E716E828A82B809EF07F00BEFE6
:100E100007F031EF07F0000E066E380E056EC1ECDC
:100E200009F0000E066E0C0E056EC1EC09F0000E06
:100E3000066E010E056EC1EC09F0000E066E060E80
:100E4000056EC1EC09F0000E726E010E716E000E9F
:100E50000001836F000E826F000E746E000E736EC1
:100E6000828882B636EF07F038EF07F046EF07F0DA
:100E700071047210D8A43FEF07F041EF07F045EF7F
:100E800007F0000E726E000E716E82869E92759251
:100E90001100000E946E000E956E9488948A9486CC
:100EA000D398D38AD38CCA84CA8CCA8ACA88CA8681
:100EB000CA829E929D829F82D08EF28E270ECB6E2A
:100EC000000E086E190E076E67EC09F0000E0C6E2E
:100ED000380E0B6EB5EC09F0000E0C6E0C0E0B6E9E
:100EE000B5EC09F0000E0C6E010E0B6EB5EC09F0BE
:100EF000000E0C6E060E0B6EB5EC09F0000E726E55
:100F0000000E716E71047210D8A489EF07F08BEF98
:100F100007F082EF07F0030E086EE80E076E67EC2D
:100F200009F0AE0E5E6E000E5F6E130E606E060E62
:100F3000616E82C062F083C063F073C064F074C0FD
:100F400065F0E1EC08F0010E0D6E060E0E6E800EDF
:100F50007BEC08F0AE0E0D6E000E0E6EC60E7BEC36
:100F600008F082EF07F007EF00F009500A10D8B43C
:100F7000BCEF07F0BEEF07F0C7EF07F009500A100B
:100F8000D8A4C5EF07F0C7EF07F0CCEF07F0075084
:100F9000CDEC09F019EF08F020EE04F00950D92645
:100FA0000A50DA22DE50DE10D8B4D9EF07F0DBEFBA
:100FB00007F0F6EF07F020EE04F00950D9260A50AA
:100FC000DA2210EE02F00950E1260A50E222DE5049
:100FD000E65CE650800A0F6EDE50800A0F58D8B0EB
:100FE000F4EF07F0F6EF07F019EF08F020EE02F04B
:100FF0000950D9260A50DA22DECF0BF0DDCF0CF0F3
:1010000009C0D9FF0AC0DAFFDECF0DF0DDCF0EF048
:101010000B500D24D96E0C500E20DA6E07C0DFFF86
:1010200020EE02F00950D9260A50DA22DE2A000EFC
:10103000DD2212006FA01FEF08F021EF08F02BEF68
:1010400008F019C010F01AC011F017C012F018C043
:1010500013F00AEC09F01CBE30EF08F032EF08F094
:1010600038EF08F01BC020F01CC021F03CEF08F066
:10107000000E216E000E206E000E1F6E000E1E6E02
:101080004EEF08F0000E086E200E076E17C009F034
:1010900018C00AF0B5EC07F01E4A1F2A20501E5C4B
:1010A0001F50800A1D6E2150800A1D58D8A05BEF8A
:1010B00008F05DEF08F042EF08F06FB062EF08F063
:1010C00064EF08F06EEF08F019C010F01AC011F0CC
:1010D00017C012F018C013F00AEC09F019C007F09D
:1010E0001AC008F04CEC09F020500724176E21506C
:1010F0000820186E12000F6E0FC00BF00C6AB5ECD2
:1011000009F097EF08F00DC0F6FF0EC0F7FFF86A80
:10111000050EF76403D00800F55005D0F6CFE1FFC7
:10112000F7CFE2FFE750A6EC09F00D4A0E2A0DC0FA
:10113000F6FF0EC0F7FFF86A050EF76403D008004B
:10114000F55005D0F6CFE1FFF7CFE2FFE7500009F9
:10115000D8A4ADEF08F0AFEF08F083EF08F012006D
:1011600058C05CF059C05DF0000E0001816F000EA8
:10117000806FCEEF08F056C046F057C047F05C0EC7
:10118000486E000E496E5AC04AF05BC04BF07CECD2
:1011900004F0465000018027475081235CC0F6FFD1
:1011A0005DC0F7FF0800F5500009D8A4DAEF08F099
:1011B000DCEF08F0BBEF08F080C056F081C057F0BC
:1011C0001200620E0001A66F000EA76F5EC0A8F0AD
:1011D0005FC0A9F0000EAB6F000EAA6F000EAD6FDE
:1011E000000EAC6FA80E566E000E576E60C058F021
:1011F00061C059F0A60E5A6E000E5B6EB0EC08F09E
:101200000001AA515E24D96EAB515F20DA6E000E48
:10121000DF6E1200000E166E000E156E1BEF09F049
:1012200014C007F0086A12C009F013C00AF0B5EC48
:1012300007F0154A162A15501024D96E16501120A1
:10124000DA6EDF50146E1450D8A429EF09F02BEF9A
:1012500009F010EF09F012001ABE39EF09F01A5028
:1012600006E11904D8B037EF09F039EF09F047EF7C
:1012700009F019C01BF01AC01CF01B1E1C1E1B4AD3
:101280001C2A1BC019F01CC01AF04BEF09F019C042
:1012900019F01AC01AF0120007C009F008C00AF0CD
:1012A00054EF09F0074A082A07C0D9FF08C0DAFF3F
:1012B000DF50D8A45EEF09F060EF09F052EF09F0BB
:1012C0000950075C076E0A500858086E120008346F
:1012D0000830096E0730076E09C008F073EF09F097
:1012E0000706D8A0080607040810D8A47AEF09F06A
:1012F0007CEF09F070EF09F0120002340230036E47
:101300000130016E03C002F089EF09F00106D8A098
:10131000020601040210D8A490EF09F092EF09F040
:1013200086EF09F0120000EE80F0240EEE6AE80667
:10133000FDE100EE66F00F0EEE6AE806FDE1759045
:101340007592000EF86E000149EF07F00C6E0CC0AC
:101350000BF00CC083FF82808282000E086E190E93
:10136000076E67EC09F0829212000BC083FF829037
:101370008282000E086E190E076E67EC09F08292E9
:10138000120005C083FF82908282000E026E190E49
:0C139000016E7DEC09F082921200120048
:020000040020DA
:08000000FFFFFFFFFFFFFFFF00
:020000040030CA
:0E000000FF881B00FF8181FF0FC00FE00F4043
:00000001FF
