:020000040000FA
:0400000007EF00F016
:0A0008006E8215ED03F063EF20F0A7
:1006000000436C656172090025732030002573205A
:1006100031002573203200257320330025732034E8
:100620000025732035006F7300000600E1CF43F012
:10063000E2CF44F0D9CF45F0DACF46F0F6CF47F01D
:10064000F7CF48F0F8CF49F0F5CF4AF09EA22BEF54
:1006500003F02DEF03F0E6EF07F00001DD05DE11FA
:10066000D8A435EF03F037EF03F037EF06F0000EB4
:10067000B36F000EB26FB9C0B4F0000EB86F010EC8
:10068000B76FB90EB725D96E000EB821DA6EDFB09C
:100690004CEF03F04FEF03F0010E50EF03F0000EAC
:1006A000426EB4B156EF03F059EF03F0010E5AEF6A
:1006B00003F0000E421AD8A460EF03F062EF03F0DB
:1006C000A4EF03F0B90EB725D96E000EB821DA6E8B
:1006D000DFB26DEF03F070EF03F0010E71EF03F086
:1006E000000E426EB4B377EF03F07AEF03F0010E21
:1006F0007BEF03F0000E421AD8A481EF03F083EFE2
:1007000003F0A4EF03F0B90EB725D96E000EB8219F
:10071000DA6EDFB48EEF03F091EF03F0010E92EF8B
:1007200003F0000E426EB4B598EF03F09BEF03F0B8
:10073000010E9CEF03F0000E421AD8B4A2EF03F0B2
:10074000A4EF03F0A8EF03F0000EB36F010EB26F39
:10075000B74BB82BB8BFB6EF03F0B85109E1040EA0
:10076000B75DD8A0B6EF03F0B8EF03F041EF03F0A8
:10077000BDC0B4F0000EB86F050EB76FB90EB72547
:10078000D96E000EB821DA6EDFB0C9EF03F0CCEFFE
:1007900003F0010ECDEF03F0000E426EB4B1D3EFC3
:1007A00003F0D6EF03F0010ED7EF03F0000E421A6C
:1007B000D8A4DDEF03F0DFEF03F021EF04F0B90E72
:1007C000B725D96E000EB821DA6EDFB2EAEF03F07A
:1007D000EDEF03F0010EEEEF03F0000E426EB4B346
:1007E000F4EF03F0F7EF03F0010EF8EF03F0000E63
:1007F000421AD8A4FEEF03F000EF04F021EF04F05A
:10080000B90EB725D96E000EB821DA6EDFB40BEF42
:1008100004F00EEF04F0010E0FEF04F0000E426E34
:10082000B4B515EF04F018EF04F0010E19EF04F061
:10083000000E421AD8B41FEF04F021EF04F025EFA8
:1008400004F0000EB36F010EB26FB74BB82BB8BFF8
:1008500033EF04F0B85109E1080EB75DD8A033EFCB
:1008600004F035EF04F0BEEF03F0C1C0B4F0000EA9
:10087000B86F090EB76FB90EB725D96E000EB82143
:10088000DA6EDFB046EF04F049EF04F0010E4AEFF4
:1008900004F0000E426EB4B150EF04F053EF04F0D8
:1008A000010E54EF04F0000E421AD8A45AEF04F0DF
:1008B0005CEF04F09EEF04F0B90EB725D96E000E80
:1008C000B821DA6EDFB267EF04F06AEF04F0010ED0
:1008D0006BEF04F0000E426EB4B371EF04F074EFEE
:1008E00004F0010E75EF04F0000E421AD8A47BEF5D
:1008F00004F07DEF04F09EEF04F0B90EB725D96E39
:10090000000EB821DA6EDFB488EF04F08BEF04F04C
:10091000010E8CEF04F0000E426EB4B592EF04F0BD
:1009200095EF04F0010E96EF04F0000E421AD8B4D1
:100930009CEF04F09EEF04F0A2EF04F0000EB36F02
:10094000010EB26FB74BB82BB8BFB0EF04F0B8517F
:1009500009E10C0EB75DD8A0B0EF04F0B2EF04F0DF
:100960003BEF04F0C5C0B4F0000EB86F0D0EB76FCA
:10097000B90EB725D96E000EB821DA6EDFB0C3EF1D
:1009800004F0C6EF04F0010EC7EF04F0000E426E53
:10099000B4B1CDEF04F0D0EF04F0010ED1EF04F0CC
:1009A000000E421AD8A4D7EF04F0D9EF04F01BEFE1
:1009B00005F0B90EB725D96E000EB821DA6EDFB298
:1009C000E4EF04F0E7EF04F0010EE8EF04F0000EAE
:1009D000426EB4B3EEEF04F0F1EF04F0010EF2EF6B
:1009E00004F0000E421AD8A4F8EF04F0FAEF04F075
:1009F0001BEF05F0B90EB725D96E000EB821DA6EDF
:100A0000DFB405EF05F008EF05F0010E09EF05F082
:100A1000000E426EB4B50FEF05F012EF05F0010EB7
:100A200013EF05F0000E421AD8B419EF05F01BEFD2
:100A300005F01FEF05F0000EB36F010EB26FB74B5C
:100A4000B82BB8BF2DEF05F0B85109E1100EB75D16
:100A5000D8A02DEF05F02FEF05F0B8EF04F0C9C0D6
:100A6000B4F0000EB86F110EB76FB90EB725D96E7E
:100A7000000EB821DA6EDFB040EF05F043EF05F06D
:100A8000010E44EF05F0000E426EB4B14AEF05F0DE
:100A90004DEF05F0010E4EEF05F0000E421AD8A4FE
:100AA00054EF05F056EF05F098EF05F0B90EB725B5
:100AB000D96E000EB821DA6EDFB261EF05F064EF97
:100AC00005F0010E65EF05F0000E426EB4B36BEF5A
:100AD00005F06EEF05F0010E6FEF05F0000E421A03
:100AE000D8A475EF05F077EF05F098EF05F0B90E93
:100AF000B725D96E000EB821DA6EDFB482EF05F0AB
:100B000085EF05F0010E86EF05F0000E426EB4B5DC
:100B10008CEF05F08FEF05F0010E90EF05F0000E61
:100B2000421AD8B496EF05F098EF05F09CEF05F067
:100B3000000EB36F010EB26FB74BB82BB8BFAAEF60
:100B400005F0B85109E1140EB75DD8A0AAEF05F081
:100B5000ACEF05F035EF05F0CDC0B4F0000EB86F86
:100B6000150EB76FB90EB725D96E000EB821DA6E23
:100B7000DFB0BDEF05F0C0EF05F0010EC1EF05F0ED
:100B8000000E426EB4B1C7EF05F0CAEF05F0010EDA
:100B9000CBEF05F0000E421AD8A4D1EF05F0D3EF49
:100BA00005F015EF06F0B90EB725D96E000EB82185
:100BB000DA6EDFB2DEEF05F0E1EF05F0010EE2EFF5
:100BC00005F0000E426EB4B3E8EF05F0EBEF05F070
:100BD000010EECEF05F0000E421AD8A4F2EF05F07A
:100BE000F4EF05F015EF06F0B90EB725D96E000E3B
:100BF000B821DA6EDFB4FFEF05F002EF06F0010E68
:100C000003EF06F0000E426EB4B509EF06F00CEFEC
:100C100006F0010E0DEF06F0000E421AD8B413EFE5
:100C200006F015EF06F019EF06F0000EB36F010E97
:100C3000B26FB74BB82BB8BF27EF06F0B85109E138
:100C4000180EB75DD8A027EF06F029EF06F0B2EF37
:100C500005F0B251B311D8A430EF06F032EF06F030
:100C600037EF06F08998000EDE6F000EDD6F9EAA4A
:100C70003CEF06F03EEF06F0E5EF07F0ABA243EFE6
:100C800006F045EF06F048EF06F0AB9800F0AB88B1
:100C9000F0EC20F00001E0BF57EF06F0E05109E171
:100CA000060EDF5DD8A057EF06F059EF06F061EFB2
:100CB00006F0010E026E060E036EBDEC1FF0B3ECE3
:100CC00020F0530E016E000E026E260E036E060E0D
:100CD000046EFCEC1FF001500210D8A472EF06F075
:100CE00074EF06F0E5EF07F021EE00F010EE80F073
:100CF000310EDBCFE3FFE806FCE2000E0001B66F29
:100D0000000EB56FB90EB525D96E000EB621DA6E9C
:100D1000DFB08DEF06F08FEF06F0B9EF06F0B90EF9
:100D2000B525D96E000EB621DA6EDFB29AEF06F065
:100D30009CEF06F0B9EF06F0B90EB525D96E000E9E
:100D4000B621DA6EDFB4A7EF06F0A9EF06F0B9EF2F
:100D500006F0800E326E000E336E210E346E060EDB
:100D6000356E800E366E000E376E8CEC20F0CCEFB8
:100D700007F0B90EB525D96E000EB621DA6EDFA0E8
:100D8000C4EF06F0C6EF06F0F0EF06F0B90EB52599
:100D9000D96E000EB621DA6EDFB2D1EF06F0D3EFD6
:100DA00006F0F0EF06F0B90EB525D96E000EB621AB
:100DB000DA6EDFA4DEEF06F0E0EF06F0F0EF06F00B
:100DC000800E326E000E336E1C0E346E060E356EC3
:100DD000800E366E000E376E8CEC20F0CCEF07F0F4
:100DE000B90EB525D96E000EB621DA6EDFB0FBEF75
:100DF00006F0FDEF06F027EF07F0B90EB525D96E26
:100E0000000EB621DA6EDFA208EF07F00AEF07F056
:100E100027EF07F0B90EB525D96E000EB621DA6EB0
:100E2000DFB415EF07F017EF07F027EF07F0800E9C
:100E3000326E000E336E170E346E060E356E800E57
:100E4000366E000E376E8CEC20F0CCEF07F0B90E4A
:100E5000B525D96E000EB621DA6EDFB032EF07F09D
:100E600034EF07F05EEF07F0B90EB525D96E000E2E
:100E7000B621DA6EDFB23FEF07F041EF07F05EEF29
:100E800007F0B90EB525D96E000EB621DA6EDFA4D3
:100E90004CEF07F04EEF07F05EEF07F0800E326E7A
:100EA000000E336E120E346E060E356E800E366EE8
:100EB000000E376E8CEC20F0CCEF07F0B90EB525A4
:100EC000D96E000EB621DA6EDFA069EF07F06BEF86
:100ED00007F095EF07F0B90EB525D96E000EB621D3
:100EE000DA6EDFA276EF07F078EF07F095EF07F004
:100EF000B90EB525D96E000EB621DA6EDFB483EFD8
:100F000007F085EF07F095EF07F0800E326E000EC8
:100F1000336E0D0E346E060E356E800E366E000E7C
:100F2000376E8CEC20F0CCEF07F0B90EB525D96EFA
:100F3000000EB621DA6EDFB0A0EF07F0A2EF07F0E7
:100F4000CCEF07F0B90EB525D96E000EB621DA6EDA
:100F5000DFA2ADEF07F0AFEF07F0CCEF07F0B90E6F
:100F6000B525D96E000EB621DA6EDFA4BAEF07F010
:100F7000BCEF07F0CCEF07F0800E326E000E336E40
:100F8000080E346E060E356E800E366E000E376E0D
:100F90008CEC20F0CCEF07F00001B54BB62BB6BFC0
:100FA000DBEF07F0B65109E1180EB55DD8A0DBEF15
:100FB00007F0DDEF07F082EF06F0800E026E000E04
:100FC000036EBDEC1FF0B3EC20F09E924AC0F5FF1B
:100FD00049C0F8FF48C0F7FF47C0F6FF46C0DAFF38
:100FE00045C0D9FF44C0E2FF43C0E1FF6E9211004B
:100FF00007EC0CF01BEC21F00AEC21F0000E956ED2
:10100000000E8C6E000E936E000E946E000E8A6EB3
:10101000000E8B6E9298000E896E8988928C928E4B
:10102000000E806ED3508F0B6009D36E8C80CA8403
:10103000CA8CCA8ACA88CA86CA829E929D829F82A8
:10104000D08EF28ECB68000E0101936F000E926F6E
:10105000000E916F000E906FD8909035D96E91353B
:10106000DA6ED10ED926000EDA22000EDE6E000EE8
:10107000DD6E904B912B91BF47EF08F0915109E144
:10108000060E905DD8A047EF08F049EF08F02CEF6E
:1010900008F0000E956F000E946F80BC52EF08F0C0
:1010A00054EF08F057EF08F007EC0CF0808C80BE8E
:1010B0005CEF08F05EEF08F061EF08F044EC1DF023
:1010C000808E010194519511D8A469EF08F06BEF5F
:1010D00008F097EF08F0000E536F000E526F7DEC92
:1010E0001FF052C184F153C185F184C152F185C111
:1010F00053F1010E0101556F2C0E546F19EC1EF0C7
:1011000052C15AF153C15BF174EC1AF084C152F12F
:1011100085C153F1010E0101556F2C0E546F19EC6E
:101120001EF052C1D1F053C1D2F071EF0BF0940513
:101130009511D8A49EEF08F0A0EF08F0CCEF08F0CE
:10114000000E536F010E526F7DEC1FF052C186F1FD
:1011500053C187F186C152F187C153F1010E0101DC
:10116000556F2C0E546F19EC1EF052C15AF153C139
:101170005BF1CCEC1CF086C152F187C153F1010E3A
:101180000101556F2C0E546F19EC1EF052C1D3F0B3
:1011900053C1D4F071EF0BF0020E94199511D8A43D
:1011A000D4EF08F0D6EF08F002EF09F0000E536F0D
:1011B000060E526F7DEC1FF052C188F153C189F1C8
:1011C00088C152F189C153F1010E0101556F2C0EF6
:1011D000546F19EC1EF052C15AF153C15BF1DCECB3
:1011E0001BF088C152F189C153F1010E0101556F05
:1011F0002C0E546F19EC1EF052C1D5F053C1D6F02D
:1012000071EF0BF0030E94199511D8A40AEF09F0B1
:101210000CEF09F038EF09F0000E536F070E526F14
:101220007DEC1FF052C18AF153C18BF18AC152F19A
:101230008BC153F1010E0101556F2C0E546F19EC47
:101240001EF052C15AF153C15BF154EC1CF08AC13B
:1012500052F18BC153F1010E0101556F2C0E546FE9
:1012600019EC1EF052C1D7F053C1D8F071EF0BF05A
:10127000040E94199511D8A440EF09F042EF09F03B
:101280006EEF09F0000E536F040E526F7DEC1FF0ED
:1012900052C18CF153C18DF18CC152F18DC153F10A
:1012A000010E0101556F2C0E546F19EC1EF052C146
:1012B0005AF153C15BF1ECEC1AF08CC152F18DC1C3
:1012C00053F1010E0101556F2C0E546F19EC1EF0F5
:1012D00052C1D9F053C1DAF071EF0BF0050E941939
:1012E0009511D8A476EF09F078EF09F0A4EF09F092
:1012F000000E536F050E526F7DEC1FF052C18EF140
:1013000053C18FF18EC152F18FC153F1010E010112
:10131000556F2C0E546F19EC1EF052C15AF153C187
:101320005BF164EC1BF08EC152F18FC153F1010EE1
:101330000101556F2C0E546F19EC1EF052C1DBF0F9
:1013400053C1DCF071EF0BF071EF0BF00001BDA1A8
:1013500002D08A8001D08A900001BDA302D08A8287
:1013600001D08A920001BDA502D08A8401D08A945E
:101370000001C0A102D08A8601D08A960001C0A3D4
:1013800002D08A8801D08A980001C0A502D08A8A3A
:1013900001D08A9AFA0E00D000D0E82EFCD78A68D5
:1013A0008B68A0EF0BF00001BEA102D08A8001D0B3
:1013B0008A900001BEA302D08A8201D08A920001E5
:1013C000BEA502D08A8401D08A940001BFA102D0B8
:1013D0008A8601D08A960001BFA302D08A8801D0F4
:1013E0008A980001BFA502D08A8A01D08A9ACAEFE2
:1013F00009F00001CDA102D08B8001D08B900001BB
:10140000CDA302D08B8201D08B920001CDA502D05A
:101410008B8401D08B940001CCA102D08B8601D0AB
:101420008B960001CCA302D08B8801D08B98000151
:10143000CCA502D08B8A01D08B9A0001BAA102D030
:101440008A8001D08A900001BAA302D08A8201D09A
:101450008A920001BAA502D08A8401D08A94000140
:10146000BBA102D08A8601D08A960001BBA302D01C
:101470008A8801D08A980001BBA502D08A8A01D04F
:101480008A9ACAEF09F00001D0A102D08B8001D066
:101490008B900001D0A302D08B8201D08B920001EF
:1014A000D0A502D08B8401D08B940001C9A102D0B9
:1014B0008B8601D08B960001C9A302D08B8801D006
:1014C0008B980001C9A502D08B8A01D08B9A0001AC
:1014D000B9A102D08A8001D08A900001B9A302D0BC
:1014E0008A8201D08A920001B9A502D08A8401D0F3
:1014F0008A940001BCA102D08A8601D08A9600019C
:10150000BCA302D08A8801D08A980001BCA502D071
:101510008A8A01D08A9ACAEF09F00001CEA102D0CE
:101520008B8001D08B900001CEA302D08B8201D0A2
:101530008B920001CEA502D08B8401D08B94000148
:10154000CBA102D08B8601D08B960001CBA302D019
:101550008B8801D08B980001CBA502D08B8A01D05B
:101560008B9A0001C1A102D08A8001D08A9000012B
:10157000C1A302D08A8201D08A920001C1A502D003
:101580008A8401D08A940001C4A102D08A8601D045
:101590008A960001C4A302D08A8801D08A980001EB
:1015A000C4A502D08A8A01D08A9ACAEF09F0000144
:1015B000CFA102D08B8001D08B900001CFA302D0AD
:1015C0008B8201D08B920001CFA502D08B8401D0F9
:1015D0008B940001CAA102D08B8601D08B960001AA
:1015E000CAA302D08B8801D08B980001CAA502D073
:1015F0008B8A01D08B9A0001C2A102D08A8001D0CF
:101600008A900001C2A302D08A8201D08A9200018E
:10161000C2A502D08A8401D08A940001C3A102D05D
:101620008A8601D08A960001C3A302D08A8801D09D
:101630008A980001C3A502D08A8A01D08A9ACAEF8B
:1016400009F00001C6A102D08A8001D08A90000171
:10165000C6A302D08A8201D08A920001C6A502D018
:101660008A8401D08A940001C7A102D08A8601D061
:101670008A960001C7A302D08A8801D08A98000107
:10168000C7A502D08A8A01D08A9ACAEF09F0000160
:10169000C5A102D08A8001D08A900001C5A302D0E2
:1016A0008A8201D08A920001C5A502D08A8401D025
:1016B0008A940001C8A102D08A8601D08A960001CE
:1016C000C8A302D08A8801D08A980001C8A502D098
:1016D0008A8A01D08A9AAF0E00D0E82EFDD7CFEFCC
:1016E00009F092C180F193C181F101018151000A99
:1016F000D8B47DEF0BF0A0EF0BF08051000AD8B406
:10170000A6EF09F0010AD8B4D3EF09F0030AD8B460
:10171000F9EF09F0010AD8B443EF0AF0070AD8B488
:101720008DEF0AF0010AD8B4D7EF0AF0030AD8B453
:1017300021EF0BF0010AD8B447EF0BF0A0EF0BF04C
:10174000010193BFAFEF0BF0935107E1080E925DDB
:10175000D8B0ADEF0BF0AFEF0BF0E6EF0BF08CBEB7
:10176000B4EF0BF0B8EF0BF0806B802BBAEF0BF0FF
:101770000101806B8051826F836B8CAC02D08C8EA8
:1017800001D08C9E8CAA02D08C8C01D08C9C8CA811
:1017900002D08C8A01D08C9A8CA602D08C8801D081
:1017A0008C988CA402D08C8601D08C968CA202D00E
:1017B0008C8401D08C948CA002D08C8201D08C922D
:1017C000010182B102D08C9001D08C800101924B3A
:1017D000932B080E92199311D8A4F1EF0BF0F3EFAD
:1017E0000BF0F7EF0BF0000E936F000E926F944B1F
:1017F000952B060E94199511D8A401EF0CF003EF68
:101800000CF04DEF08F049EF08F007EF00F0898881
:10181000000E0001DE6F000EDD6F000E0101536F40
:10182000000E526FB90E5225D96E000E5321DA6E9A
:101830000001DF90B90E01015225D96E000E53212F
:10184000DA6E0001DF92B90E01015225D96E000E49
:101850005321DA6E0001DF840101524B532B53BF39
:101860003BEF0CF0535109E1040E525DD8A03BEF61
:101870000CF03DEF0CF012EF0CF0000E536F040E65
:10188000526FB90E5225D96E000E5321DA6E000147
:10189000DF80B90E01015225D96E000E5321DA6E98
:1018A0000001DF92B90E01015225D96E000E5321BD
:1018B000DA6E0001DF840101524B532B53BF6AEFF4
:1018C0000CF0535109E1080E525DD8A06AEF0CF0FC
:1018D0006CEF0CF041EF0CF0000E536F080E526FDE
:1018E000B90E5225D96E000E5321DA6E0001DF9039
:1018F000B90E01015225D96E000E5321DA6E000196
:10190000DF92B90E01015225D96E000E5321DA6E15
:101910000001DF940101524B532B53BF99EF0CF0A0
:10192000535109E10C0E525DD8A099EF0CF09BEFDA
:101930000CF070EF0CF0000E536F0C0E526FB90EDE
:101940005225D96E000E5321DA6E0001DF80B90EE8
:1019500001015225D96E000E5321DA6E0001DF829B
:10196000B90E01015225D96E000E5321DA6E000125
:10197000DF940101524B532B53BFC8EF0CF053516E
:1019800009E1100E525DD8A0C8EF0CF0CAEF0CF0C0
:101990009FEF0CF0000E536F100E526FB90E5225D0
:1019A000D96E000E5321DA6E0001DF90B90E0101ED
:1019B0005225D96E000E5321DA6E0001DF82B90E76
:1019C00001015225D96E000E5321DA6E0001DF8429
:1019D0000101524B532B53BFF7EF0CF0535109E168
:1019E000140E525DD8A0F7EF0CF0F9EF0CF0CEEF2B
:1019F0000CF0000E536F140E526FB90E5225D96EB3
:101A0000000E5321DA6E0001DF90B90E010152255C
:101A1000D96E000E5321DA6E0001DF82B90E01018A
:101A20005225D96E000E5321DA6E0001DF940101B8
:101A3000524B532B53BF26EF0DF0535109E1180EB3
:101A4000525DD8A026EF0DF028EF0DF0FDEF0CF061
:101A50001200B9C052F1BCC053F10001D0A102D0B4
:101A6000B98102D00001B991CFA102D0BC8102D0CE
:101A70000001BC91D0A302D0B98302D00001B99378
:101A8000CFA302D0BC8302D00001BC93D0A502D06A
:101A9000B98502D00001B995CFA502D0BC8502D08E
:101AA0000001BC95C3A102D0D08102D00001D09129
:101AB000C2A102D0CF8102D00001CF91C3A302D036
:101AC000D08302D00001D093C2A302D0CF8302D032
:101AD0000001CF93C3A502D0D08502D00001D095DC
:101AE000C2A502D0CF8502D00001CF95CAA102D0F5
:101AF000C38102D00001C391C9A102D0C28102D02A
:101B00000001C291CAA302D0C38302D00001C393D3
:101B1000C9A302D0C28302D00001C293CAA502D0D9
:101B2000C38502D00001C395C9A502D0C28502D0E9
:101B30000001C295010152A103D00001CA8102D067
:101B40000001CA91010153A103D00001C98102D053
:101B50000001C991010152A303D00001CA8302D040
:101B60000001CA93010153A303D00001C98302D02D
:101B70000001C993010152A503D00001CA8502D01A
:101B80000001CA95010153A503D00001C98502D007
:101B90000001C995C6C054F1C7A102D0C68102D0C8
:101BA0000001C691C8A102D0C78102D00001C7912F
:101BB000C7A302D0C68302D00001C693C8A302D037
:101BC000C78302D00001C793C7A502D0C68502D043
:101BD0000001C695C8A502D0C78502D00001C795EF
:101BE000C5A102D0C88102D00001C891010154A151
:101BF00003D00001C58102D00001C591C5A302D068
:101C0000C88302D00001C893010154A303D000018E
:101C1000C58302D00001C593C5A502D0C88502D0F6
:101C20000001C895010154A503D00001C58502D06B
:101C30000001C5951200BDC052F1C0C053F10001B2
:101C4000CDA102D0BD8102D00001BD91D0A102D0B2
:101C5000C08102D00001C091CDA302D0BD8302D0CB
:101C60000001BD93D0A302D0C08302D00001C09375
:101C7000CDA502D0BD8502D00001BD95D0A502D072
:101C8000C08502D00001C095C7A102D0CD8102D08D
:101C90000001CD91C6A102D0D08102D00001D09127
:101CA000C7A302D0CD8302D00001CD93C6A302D03A
:101CB000D08302D00001D093C7A502D0CD8502D039
:101CC0000001CD95C6A502D0D08502D00001D095E7
:101CD000C9A102D0C78102D00001C791CCA102D016
:101CE000C68102D00001C691C9A302D0C78302D029
:101CF0000001C793CCA302D0C68302D00001C693D3
:101D0000C9A502D0C78502D00001C795CCA502D0D5
:101D1000C68502D00001C695010152A103D0000181
:101D2000C98102D00001C991010153A103D0000172
:101D3000CC8102D00001CC91010152A303D000015B
:101D4000C98302D00001C993010153A303D000014C
:101D5000CC8302D00001CC93010152A503D0000135
:101D6000C98502D00001C995010153A503D0000126
:101D7000CC8502D00001CC95BAC054F1BBA102D0F1
:101D8000BA8102D00001BA91BCA102D0BB8102D0BD
:101D90000001BB91BBA302D0BA8302D00001BA9369
:101DA000BCA302D0BB8302D00001BB93BBA502D071
:101DB000BA8502D00001BA95BCA502D0BB8502D07D
:101DC0000001BB95B9A102D0BC8102D00001BC9139
:101DD000010154A103D00001B98102D00001B991E1
:101DE000B9A302D0BC8302D00001BC93010154A36B
:101DF00003D00001B98302D00001B993B9A502D084
:101E0000BC8502D00001BC95010154A503D000019E
:101E1000B98502D00001B9951200BEC052F1BFC011
:101E200053F10001CEA102D0BE8102D00001BE91CB
:101E3000CFA102D0BF8102D00001BF91CEA302D0BA
:101E4000BE8302D00001BE93CFA302D0BF8302D0D5
:101E50000001BF93CEA502D0BE8502D00001BE9581
:101E6000CFA502D0BF8502D00001BF95C8A102D086
:101E7000CE8102D00001CE91C5A102D0CF8102D087
:101E80000001CF91C8A302D0CE8302D00001CE932F
:101E9000C5A302D0CF8302D00001CF93C8A502D042
:101EA000CE8502D00001CE95C5A502D0CF8502D047
:101EB0000001CF95CAA102D0C88102D00001C8910B
:101EC000CBA102D0C58102D00001C591CAA302D026
:101ED000C88302D00001C893CBA302D0C58302D02F
:101EE0000001C593CAA502D0C88502D00001C895DB
:101EF000CBA502D0C58502D00001C595010152A134
:101F000003D00001CA8102D00001CA91010153A18E
:101F100003D00001CB8102D00001CB91010152A37B
:101F200003D00001CA8302D00001CA93010153A368
:101F300003D00001CB8302D00001CB93010152A555
:101F400003D00001CA8502D00001CA95010153A542
:101F500003D00001CB8502D00001CB95C1C054F164
:101F6000C4A102D0C18102D00001C191C3A102D09D
:101F7000C48102D00001C491C4A302D0C18302D0A5
:101F80000001C193C3A302D0C48302D00001C49353
:101F9000C4A502D0C18502D00001C195C3A502D05D
:101FA000C48502D00001C495C2A102D0C38102D071
:101FB0000001C391010154A103D00001C28102D0EC
:101FC0000001C291C2A302D0C38302D00001C39317
:101FD000010154A303D00001C28302D00001C293C7
:101FE000C2A502D0C38502D00001C395010154A54A
:101FF00003D00001C28502D00001C2951200C7C003
:1020000052F1C8C053F10001C3A102D0C78102D070
:102010000001C791C4A102D0C88102D00001C891BB
:10202000C3A302D0C78302D00001C793C4A302D0C8
:10203000C88302D00001C893C3A502D0C78502D0CF
:102040000001C795C4A502D0C88502D00001C8957B
:10205000BFA102D0C38102D00001C391C0A102D0B0
:10206000C48102D00001C491BFA302D0C38302D0B7
:102070000001C393C0A302D0C48302D00001C49363
:10208000BFA502D0C38502D00001C395C0A502D070
:10209000C48502D00001C495BBA102D0BF8102D08B
:1020A0000001BF91BCA102D0C08102D00001C0914B
:1020B000BBA302D0BF8302D00001BF93BCA302D058
:1020C000C08302D00001C093BBA502D0BF8502D05F
:1020D0000001BF95BCA502D0C08502D00001C0950B
:1020E000010152A103D00001BB8102D00001BB91CC
:1020F000010153A103D00001BC8102D00001BC91B9
:10210000010152A303D00001BB8302D00001BB93A5
:10211000010153A303D00001BC8302D00001BC9392
:10212000010152A503D00001BB8502D00001BB957F
:10213000010153A503D00001BC8502D00001BC956C
:10214000D0C054F1CFA102D0D08102D00001D091F3
:10215000CEA102D0CF8102D00001CF91CFA302D077
:10216000D08302D00001D093CEA302D0CF8302D07F
:102170000001CF93CFA502D0D08502D00001D09529
:10218000CEA502D0CF8502D00001CF95CDA102D03F
:10219000CE8102D00001CE91010154A103D00001F3
:1021A000CD8102D00001CD91CDA302D0CE8302D04B
:1021B0000001CE93010154A303D00001CD8302D0CE
:1021C0000001CD93CDA502D0CE8502D00001CE95E1
:1021D000010154A503D00001CD8502D00001CD95A9
:1021E0001200C5C052F1C6C053F10001C1A102D016
:1021F000C58102D00001C591C2A102D0C68102D022
:102200000001C691C1A302D0C58302D00001C593CD
:10221000C2A302D0C68302D00001C693C1A502D0DA
:10222000C58502D00001C595C2A502D0C68502D0E1
:102230000001C695BDA102D0C18102D00001C191AB
:10224000BEA102D0C28102D00001C291BDA302D0C2
:10225000C18302D00001C193BEA302D0C28302D0C9
:102260000001C293BDA502D0C18502D00001C19575
:10227000BEA502D0C28502D00001C295B9A102D08C
:10228000BD8102D00001BD91BAA102D0BE8102D0B1
:102290000001BE91B9A302D0BD8302D00001BD935D
:1022A000BAA302D0BE8302D00001BE93B9A502D06A
:1022B000BD8502D00001BD95BAA502D0BE8502D071
:1022C0000001BE95010152A103D00001B98102D0E5
:1022D0000001B991010153A103D00001BA8102D0DC
:1022E0000001BA91010152A303D00001B98302D0C9
:1022F0000001B993010153A303D00001BA8302D0B6
:102300000001BA93010152A503D00001B98502D0A2
:102310000001B995010153A503D00001BA8502D08F
:102320000001BA95C9C054F1CAA102D0C98102D036
:102330000001C991CBA102D0CA8102D00001CA918B
:10234000CAA302D0C98302D00001C993CBA302D093
:10235000CA8302D00001CA93CAA502D0C98502D09F
:102360000001C995CBA502D0CA8502D00001CA954B
:10237000CCA102D0CB8102D00001CB91010154A1AC
:1023800003D00001CC8102D00001CC91CCA302D0BB
:10239000CB8302D00001CB93010154A303D00001F1
:1023A000CC8302D00001CC93CCA502D0CB8502D047
:1023B0000001CB95010154A503D00001CC8502D0CA
:1023C0000001CC951200BAC052F1BBC053F100011C
:1023D000CDA102D0BA8102D00001BA91CEA102D023
:1023E000BB8102D00001BB91CDA302D0BA8302D041
:1023F0000001BA93CEA302D0BB8302D00001BB93ED
:10240000CDA502D0BA8502D00001BA95CEA502D0E2
:10241000BB8502D00001BB95C4A102D0CD8102D002
:102420000001CD91C1A102D0CE8102D00001CE9198
:10243000C4A302D0CD8302D00001CD93C1A302D0AA
:10244000CE8302D00001CE93C4A502D0CD8502D0A8
:102450000001CD95C1A502D0CE8502D00001CE9558
:10246000CBA102D0C48102D00001C491CCA102D082
:10247000C18102D00001C191CBA302D0C48302D09C
:102480000001C493CCA302D0C18302D00001C19348
:10249000CBA502D0C48502D00001C495CCA502D042
:1024A000C18502D00001C195010152A103D00001F4
:1024B000CB8102D00001CB91010153A103D00001D7
:1024C000CC8102D00001CC91010152A303D00001C4
:1024D000CB8302D00001CB93010153A303D00001B1
:1024E000CC8302D00001CC93010152A503D000019E
:1024F000CB8502D00001CB95010153A503D000018B
:10250000CC8502D00001CC95BDC054F1C0A102D051
:10251000BD8102D00001BD91BFA102D0C08102D017
:102520000001C091C0A302D0BD8302D00001BD93C1
:10253000BFA302D0C08302D00001C093C0A502D0C7
:10254000BD8502D00001BD95BFA502D0C08502D0D7
:102550000001C095BEA102D0BF8102D00001BF9191
:10256000010154A103D00001BE8102D00001BE913F
:10257000BEA302D0BF8302D00001BF93010154A3C8
:1025800003D00001BE8302D00001BE93BEA502D0DD
:10259000BF8502D00001BF95010154A503D0000101
:1025A000BE8502D00001BE951200B9C052F1BCC078
:1025B00053F10001CAA102D0B98102D00001B99142
:1025C000C9A102D0BC8102D00001BC91CAA302D033
:1025D000B98302D00001B993C9A302D0BC8302D051
:1025E0000001BC93CAA502D0B98502D00001B995FB
:1025F000C9A502D0BC8502D00001BC95C3A102D000
:10260000CA8102D00001CA91C2A102D0C98102D000
:102610000001C991C3A302D0CA8302D00001CA93AA
:10262000C2A302D0C98302D00001C993C3A502D0BE
:10263000CA8502D00001CA95C2A502D0C98502D0C0
:102640000001C995D0A102D0C38102D00001C3917D
:10265000CFA102D0C28102D00001C291D0A302D08A
:10266000C38302D00001C393CFA302D0C28302D0A0
:102670000001C293D0A502D0C38502D00001C3954A
:10268000CFA502D0C28502D00001C295010152A19E
:1026900003D00001D08102D00001D091010153A1EB
:1026A00003D00001CF8102D00001CF91010152A3DC
:1026B00003D00001D08302D00001D093010153A3C5
:1026C00003D00001CF8302D00001CF93010152A5B6
:1026D00003D00001D08502D00001D095010153A59F
:1026E00003D00001CF8502D00001CF95C6C054F1C0
:1026F000C5A102D0C68102D00001C691C8A102D0F6
:10270000C58102D00001C591C5A302D0C68302D005
:102710000001C693C8A302D0C58302D00001C593AF
:10272000C5A502D0C68502D00001C695C8A502D0B5
:10273000C58502D00001C595C7A102D0C88102D0CD
:102740000001C891010154A103D00001C78102D04A
:102750000001C791C7A302D0C88302D00001C8936B
:10276000010154A303D00001C78302D00001C79325
:10277000C7A502D0C88502D00001C895010154A5A3
:1027800003D00001C78502D00001C7951200BDC06B
:1027900052F1C0C053F10001C9A102D0BD8102D0E5
:1027A0000001BD91CCA102D0C08102D00001C09136
:1027B000C9A302D0BD8302D00001BD93CCA302D037
:1027C000C08302D00001C093C9A502D0BD8502D04C
:1027D0000001BD95CCA502D0C08502D00001C095F6
:1027E000C7A102D0C98102D00001C991C6A102D0FF
:1027F000CC8102D00001CC91C7A302D0C98302D002
:102800000001C993C6A302D0CC8302D00001CC93AF
:10281000C7A502D0C98502D00001C995C6A502D0BE
:10282000CC8502D00001CC95CDA102D0C78102D0C9
:102830000001C791D0A102D0C68102D00001C6918B
:10284000CDA302D0C78302D00001C793D0A302D08A
:10285000C68302D00001C693CDA502D0C78502D0A1
:102860000001C795D0A502D0C68502D00001C6954B
:10287000010152A103D00001CD8102D00001CD9110
:10288000010153A103D00001D08102D00001D091F9
:10289000010152A303D00001CD8302D00001CD93EA
:1028A000010153A303D00001D08302D00001D093D3
:1028B000010152A503D00001CD8502D00001CD95C4
:1028C000010153A503D00001D08502D00001D095AD
:1028D000BAC054F1B9A102D0BA8102D00001BA91B4
:1028E000BCA102D0B98102D00001B991B9A302D034
:1028F000BA8302D00001BA93BCA302D0B98302D03C
:102900000001B993B9A502D0BA8502D00001BA95E9
:10291000BCA502D0B98502D00001B995BBA102D0F7
:10292000BC8102D00001BC91010154A103D000017F
:10293000BB8102D00001BB91BBA302D0BC8302D0FB
:102940000001BC93010154A303D00001BB8302D05A
:102950000001BB93BBA502D0BC8502D00001BC9591
:10296000010154A503D00001BB8502D00001BB9535
:102970001200BEC052F1BFC053F10001CAA102D083
:10298000BE8102D00001BE91CBA102D0BF8102D096
:102990000001BF91CAA302D0BE8302D00001BE9342
:1029A000CBA302D0BF8302D00001BF93CAA502D03F
:1029B000BE8502D00001BE95CBA502D0BF8502D056
:1029C0000001BF95C8A102D0CA8102D00001CA91FE
:1029D000C5A102D0CB8102D00001CB91C8A302D007
:1029E000CA8302D00001CA93C5A302D0CB8302D010
:1029F0000001CB93C8A502D0CA8502D00001CA95B8
:102A0000C5A502D0CB8502D00001CB95CEA102D0C6
:102A1000C88102D00001C891CFA102D0C58102D0E7
:102A20000001C591CEA302D0C88302D00001C89393
:102A3000CFA302D0C58302D00001C593CEA502D09A
:102A4000C88502D00001C895CFA502D0C58502D0A7
:102A50000001C595010152A103D00001CE8102D031
:102A60000001CE91010153A103D00001CF8102D01A
:102A70000001CF91010152A303D00001CE8302D007
:102A80000001CE93010153A303D00001CF8302D0F4
:102A90000001CF93010152A503D00001CE8502D0E1
:102AA0000001CE95010153A503D00001CF8502D0CE
:102AB0000001CF95C1C054F1C2A102D0C18102D0A2
:102AC0000001C191C3A102D0C28102D00001C29114
:102AD000C2A302D0C18302D00001C193C3A302D01C
:102AE000C28302D00001C293C2A502D0C18502D028
:102AF0000001C195C3A502D0C28502D00001C295D4
:102B0000C4A102D0C38102D00001C391010154A12C
:102B100003D00001C48102D00001C491C4A302D03B
:102B2000C38302D00001C393010154A303D0000169
:102B3000C48302D00001C493C4A502D0C38502D0CF
:102B40000001C395010154A503D00001C48502D042
:102B50000001C4951200BBC052F1BCC053F100018A
:102B6000BFA102D0BB8102D00001BB91C0A102D0A5
:102B7000BC8102D00001BC91BFA302D0BB8302D0B4
:102B80000001BB93C0A302D0BC8302D00001BC9360
:102B9000BFA502D0BB8502D00001BB95C0A502D065
:102BA000BC8502D00001BC95C3A102D0BF8102D078
:102BB0000001BF91C4A102D0C08102D00001C09128
:102BC000C3A302D0BF8302D00001BF93C4A302D02D
:102BD000C08302D00001C093C3A502D0BF8502D03C
:102BE0000001BF95C4A502D0C08502D00001C095E8
:102BF000C7A102D0C38102D00001C391C8A102D0F5
:102C0000C48102D00001C491C7A302D0C38302D003
:102C10000001C393C8A302D0C48302D00001C493AF
:102C2000C7A502D0C38502D00001C395C8A502D0B4
:102C3000C48502D00001C495010152A103D0000156
:102C4000C78102D00001C791010153A103D0000147
:102C5000C88102D00001C891010152A303D0000134
:102C6000C78302D00001C793010153A303D0000121
:102C7000C88302D00001C893010152A503D000010E
:102C8000C78502D00001C795010153A503D00001FB
:102C9000C88502D00001C895CDC054F1CEA102D0A4
:102CA000CD8102D00001CD91CFA102D0CE8102D042
:102CB0000001CE91CEA302D0CD8302D00001CD93EE
:102CC000CFA302D0CE8302D00001CE93CEA502D0F6
:102CD000CD8502D00001CD95CFA502D0CE8502D002
:102CE0000001CE95D0A102D0CF8102D00001CF91BA
:102CF000010154A103D00001D08102D00001D09184
:102D0000D0A302D0CF8302D00001CF93010154A3FE
:102D100003D00001D08302D00001D093D0A502D00F
:102D2000CF8502D00001CF95010154A503D0000149
:102D3000D08502D00001D0951200B9C052F1BAC0BE
:102D400053F10001BDA102D0B98102D00001B991B7
:102D5000BEA102D0BA8102D00001BA91BDA302D0B7
:102D6000B98302D00001B993BEA302D0BA8302D0C6
:102D70000001BA93BDA502D0B98502D00001B99572
:102D8000BEA502D0BA8502D00001BA95C1A102D079
:102D9000BD8102D00001BD91C2A102D0BE8102D08E
:102DA0000001BE91C1A302D0BD8302D00001BD933A
:102DB000C2A302D0BE8302D00001BE93C1A502D03F
:102DC000BD8502D00001BD95C2A502D0BE8502D04E
:102DD0000001BE95C5A102D0C18102D00001C19100
:102DE000C6A102D0C28102D00001C291C5A302D007
:102DF000C18302D00001C193C6A302D0C28302D016
:102E00000001C293C5A502D0C18502D00001C195C1
:102E1000C6A502D0C28502D00001C295010152A10F
:102E200003D00001C58102D00001C591010153A169
:102E300003D00001C68102D00001C691010152A356
:102E400003D00001C58302D00001C593010153A343
:102E500003D00001C68302D00001C693010152A530
:102E600003D00001C58502D00001C595010153A51D
:102E700003D00001C68502D00001C695C9C054F137
:102E8000CCA102D0C98102D00001C991CBA102D04E
:102E9000CC8102D00001CC91CCA302D0C98302D056
:102EA0000001C993CBA302D0CC8302D00001CC9304
:102EB000CCA502D0C98502D00001C995CBA502D00E
:102EC000CC8502D00001CC95CAA102D0CB8102D022
:102ED0000001CB91010154A103D00001CA8102D0AD
:102EE0000001CA91CAA302D0CB8302D00001CB93C8
:102EF000010154A303D00001CA8302D00001CA9388
:102F0000CAA502D0CB8502D00001CB95010154A502
:102F100003D00001CA8502D00001CA951200BAC0D0
:102F200052F1BBC053F10001CBA102D0BA8102D053
:102F30000001BA91CCA102D0BB8102D00001BB91AB
:102F4000CBA302D0BA8302D00001BA93CCA302D0A3
:102F5000BB8302D00001BB93CBA502D0BA8502D0BF
:102F60000001BA95CCA502D0BB8502D00001BB956B
:102F7000C4A102D0CB8102D00001CB91C1A102D06B
:102F8000CC8102D00001CC91C4A302D0CB8302D06B
:102F90000001CB93C1A302D0CC8302D00001CC931B
:102FA000C4A502D0CB8502D00001CB95C1A502D02B
:102FB000CC8502D00001CC95CDA102D0C48102D035
:102FC0000001C491CEA102D0C18102D00001C19103
:102FD000CDA302D0C48302D00001C493CEA302D0FB
:102FE000C18302D00001C193CDA502D0C48502D017
:102FF0000001C495CEA502D0C18502D00001C195C3
:10300000010152A103D00001CD8102D00001CD9178
:10301000010153A103D00001CE8102D00001CE9165
:10302000010152A303D00001CD8302D00001CD9352
:10303000010153A303D00001CE8302D00001CE933F
:10304000010152A503D00001CD8502D00001CD952C
:10305000010153A503D00001CE8502D00001CE9519
:10306000BDC054F1BEA102D0BD8102D00001BD910E
:10307000BFA102D0BE8102D00001BE91BEA302D08A
:10308000BD8302D00001BD93BFA302D0BE8302D096
:103090000001BE93BEA502D0BD8502D00001BD9542
:1030A000BFA502D0BE8502D00001BE95C0A102D04E
:1030B000BF8102D00001BF91010154A103D00001E2
:1030C000C08102D00001C091C0A302D0BF8302D052
:1030D0000001BF93010154A303D00001C08302D0BB
:1030E0000001C093C0A502D0BF8502D00001BF95EA
:1030F000010154A503D00001C08502D00001C09594
:10310000120020EE67F010EE0FF0060EDBCFE3FFAB
:10311000E806FCE20CC01AF00DC01BF01A501B10A0
:10312000D8A495EF18F097EF18F09BEF18F00F0E5A
:103130001A6E000E1B6E1AC001F01BC002F0D5EC17
:1031400020F001C01EF002C01FF04FC01CF050C0A4
:103150001DF01DBEAEEF18F0B0EF18F0C5EF18F07F
:103160001E501C5C1D50800A0E6E1F50800A0E58A7
:10317000D8A0BDEF18F0BFEF18F0C1EF18F0C5EF01
:1031800018F01CC01EF01DC01FF01EC01CF01FC098
:103190001DF04DC018F04EC019F051B0D2EF18F02C
:1031A000D4EF18F0F1EF18F0E2EF18F0000E026E15
:1031B000200E016E0AC003F00BC004F0B4EC1DF049
:1031C0001E4A1F2A18501E5C1F50800A0E6E19508E
:1031D000800A0E58D8A0EFEF18F0F1EF18F0D6EFF4
:1031E00018F0000E176E000E166E0AEF19F01AC0D6
:1031F000D9FF1BC0DAFFDF500E6E0E50016E026A5F
:103200000AC003F00BC004F0B4EC1DF01A4A1B2AEC
:10321000164A172A1C50165C1750800A0E6E1D5055
:10322000800A0E58D8A017EF19F019EF19F0F7EF30
:1032300018F051A01EEF19F020EF19F03DEF19F032
:103240002EEF19F0000E026E200E016E0AC003F080
:103250000BC004F0B4EC1DF01E4A1F2A18501E5C6F
:103260001F50800A0E6E1950800A0E58D8A03BEFEE
:1032700019F03DEF19F022EF19F01EC00AF01FC03F
:103280000BF0120022C0D9FF23C0DAFFDECFF6FF19
:10329000DDCFF7FF0800F550250AD8A452EF19F04A
:1032A00054EF19F0D8EF19F022C0D9FF23C0DAFF8C
:1032B000DE2A000EDD22000E4E6E000E4D6E4DC059
:1032C00051F04EC052F04F68506822C0D9FF23C061
:1032D000DAFFDECFF6FFDDCFF7FF0800F550730A07
:1032E000D8A475EF19F077EF19F0A2EF19F022C00A
:1032F000D9FF23C0DAFFDE2A000EDD2224C0D9FF69
:1033000025C0DAFFDFCF26F0020EDE26DFCF27F062
:10331000000EDD2226C0D9FF27C0DAFFDECF28F05D
:10332000DDCF29F020C00AF021C00BF028C00CF03E
:1033300029C00DF081EC18F00AC020F00BC021F07C
:10334000F3EF19F022C0D9FF23C0DAFFDECFF6FF7A
:10335000DDCFF7FF0800F550250AD8A4B2EF19F029
:10336000B4EF19F0CBEF19F022C0D9FF23C0DAFF78
:10337000DE2A000EDD22000E026E250E016E20C038
:1033800003F021C004F0B4EC1DF0000E216E010E1C
:10339000206EF3EF19F022C0D9FF23C0DAFFDE2A36
:1033A000000EDD22000E216E000E206EF3EF19F0EC
:1033B00022C0D9FF23C0DAFFDECFF6FFDDCFF7FF53
:1033C0000800F550016E026A20C003F021C004F02D
:1033D000B4EC1DF022C0D9FF23C0DAFFDE2A000EB4
:1033E000DD22C5EF19F01200E1C052F1E2C053F145
:1033F000E3C054F1E4C055F1E5C056F1E6C057F121
:10340000E7C058F1E8C059F12D0E01015A6F7F0E47
:103410005B6F950E5C6F4C0E5D6F2D0E5E6FF40E44
:103420005F6F510E606F580E616F2DEC1FF052C12F
:103430006CF153C16DF154C16EF155C16FF156C1BC
:1034400070F157C171F158C172F159C173F1010E98
:1034500001016C250001E16F000E01016D210001E9
:10346000E26F000E01016E210001E36F000E010109
:103470006F210001E46F000E010170210001E56F72
:10348000000E010171210001E66F000E01017221A1
:103490000001E76F000E010173210001E86FE1C038
:1034A0006CF1E2C06DF1E3C06EF1E4C06FF1E5C014
:1034B00070F1E6C071F1E7C072F1E8C073F1320E4D
:1034C0006CEF1AF00101D89073337233713370339B
:1034D0006F336E336D336C33E82E62EF1AF06CC1CC
:1034E0006AF16EC16BF1120001015BBF81EF1AF04E
:1034F0005B5109E1040E5A5DD8A081EF1AF083EF09
:103500001AF087EF1AF0000E5B6F030E5A6F5A51D4
:103510000001D15DD251800A01015C6F5B51800ACC
:103520005C59D8B096EF1AF098EF1AF0B9EF1AF08C
:103530000001D15101015A5D5D6F0001D2510101BD
:103540005B595E6FAAEF1AF0D5EC12F001015D072E
:10355000D8A05E075EBFB7EF1AF05E5106E15D05C9
:10356000D8B0B5EF1AF0B7EF1AF0A4EF1AF0EBEFFE
:103570001AF00001D15101015A5D5B51800A5C6F64
:103580000001D251800A01015C59D8B0CAEF1AF08B
:10359000CCEF1AF0EBEF1AF05A510001D15D0101A6
:1035A0005F6F5B510001D2590101606FDEEF1AF0CD
:1035B00029EC0DF001015F07D8A0600760BFEBEFB9
:1035C0001AF0605106E15F05D8B0E9EF1AF0EBEFB1
:1035D0001AF0D8EF1AF0120001015BBFF9EF1AF0F0
:1035E0005B5109E1040E5A5DD8A0F9EF1AF0FBEF28
:1035F0001AF0FFEF1AF0000E5B6F030E5A6F5A516C
:103600000001D95DDA51800A01015C6F5B51800ACB
:103610005C59D8B00EEF1BF010EF1BF031EF1BF030
:103620000001D95101015A5D5D6F0001DA510101BC
:103630005B595E6F22EF1BF0C7EC13F001015D07D1
:10364000D8A05E075EBF2FEF1BF05E5106E15D055F
:10365000D8B02DEF1BF02FEF1BF01CEF1BF063EF2A
:103660001BF00001D95101015A5D5B51800A5C6F6A
:103670000001DA51800A01015C59D8B042EF1BF019
:1036800044EF1BF063EF1BF05A510001D95D0101BB
:103690005F6F5B510001DA590101606F56EF1BF05B
:1036A0001BEC0EF001015F07D8A0600760BF63EF5D
:1036B0001BF0605106E15F05D8B061EF1BF063EFCE
:1036C0001BF050EF1BF0120001015BBF71EF1BF00C
:1036D0005B5109E1040E5A5DD8A071EF1BF073EF46
:1036E0001BF077EF1BF0000E5B6F030E5A6F5A5101
:1036F0000001DB5DDC51800A01015C6F5B51800AD7
:103700005C59D8B086EF1BF088EF1BF0A9EF1BF0D7
:103710000001DB5101015A5D5D6F0001DC510101C7
:103720005B595E6F9AEF1BF0B9EC14F001015D0775
:10373000D8A05E075EBFA7EF1BF05E5106E15D05F6
:10374000D8B0A5EF1BF0A7EF1BF094EF1BF0DBEF59
:103750001BF00001DB5101015A5D5B51800A5C6F77
:103760000001DC51800A01015C59D8B0BAEF1BF0AE
:10377000BCEF1BF0DBEF1BF05A510001DB5D0101D8
:103780005F6F5B510001DC590101606FCEEF1BF0F0
:103790000DEC0FF001015F07D8A0600760BFDBEF01
:1037A0001BF0605106E15F05D8B0D9EF1BF0DBEFED
:1037B0001BF0C8EF1BF0120001015BBFE9EF1BF02B
:1037C0005B5109E1040E5A5DD8A0E9EF1BF0EBEF65
:1037D0001BF0EFEF1BF0000E5B6F030E5A6F5A5198
:1037E0000001D55DD651800A01015C6F5B51800AF2
:1037F0005C59D8B0FEEF1BF000EF1CF021EF1CF07D
:103800000001D55101015A5D5D6F0001D6510101E2
:103810005B595E6F12EF1CF0ABEC15F001015D0718
:10382000D8A05E075EBF1FEF1CF05E5106E15D058C
:10383000D8B01DEF1CF01FEF1CF00CEF1CF053EF85
:103840001CF00001D55101015A5D5B51800A5C6F8B
:103850000001D651800A01015C59D8B032EF1CF04A
:1038600034EF1CF053EF1CF05A510001D55D0101FB
:103870005F6F5B510001D6590101606F46EF1CF08C
:10388000FFEC0FF001015F07D8A0600760BF53EFA6
:103890001CF0605106E15F05D8B051EF1CF053EF0A
:1038A0001CF040EF1CF0120001015BBF61EF1CF047
:1038B0005B5109E1040E5A5DD8A061EF1CF063EF83
:1038C0001CF067EF1CF0000E5B6F030E5A6F5A512D
:1038D0000001D75DD851800A01015C6F5B51800AFD
:1038E0005C59D8B076EF1CF078EF1CF099EF1CF023
:1038F0000001D75101015A5D5D6F0001D8510101EE
:103900005B595E6F8AEF1CF09DEC16F001015D07BC
:10391000D8A05E075EBF97EF1CF05E5106E15D0523
:10392000D8B095EF1CF097EF1CF084EF1CF0CBEFB4
:103930001CF00001D75101015A5D5B51800A5C6F98
:103940000001D851800A01015C59D8B0AAEF1CF0DF
:10395000ACEF1CF0CBEF1CF05A510001D75D010118
:103960005F6F5B510001D8590101606FBEEF1CF021
:10397000F1EC10F001015F07D8A0600760BFCBEF4A
:103980001CF0605106E15F05D8B0C9EF1CF0CBEF29
:103990001CF0B8EF1CF0120001015BBFD9EF1CF066
:1039A0005B5109E1040E5A5DD8A0D9EF1CF0DBEFA2
:1039B0001CF0DFEF1CF0000E5B6F030E5A6F5A51C4
:1039C0000001D35DD451800A01015C6F5B51800A14
:1039D0005C59D8B0EEEF1CF0F0EF1CF011EF1DF0C9
:1039E0000001D35101015A5D5D6F0001D451010105
:1039F0005B595E6F02EF1DF08FEC17F001015D0760
:103A0000D8A05E075EBF0FEF1DF05E5106E15D05B9
:103A1000D8B00DEF1DF00FEF1DF0FCEF1CF043EFE1
:103A20001DF00001D35101015A5D5B51800A5C6FAA
:103A30000001D451800A01015C59D8B022EF1DF079
:103A400024EF1DF043EF1DF05A510001D35D010139
:103A50005F6F5B510001D4590101606F36EF1DF0BB
:103A6000E3EC11F001015F07D8A0600760BF43EFEE
:103A70001DF0605106E15F05D8B041EF1DF043EF46
:103A80001DF030EF1DF0120007EC0CF0000E0001ED
:103A9000DE6F010EDD6F000E01017F6F000E7E6F85
:103AA000F4EC19F06AC174F16BC175F1000E0101FB
:103AB000776F060E766F7CEC1EF074C17CF175C1D9
:103AC0007DF17BEF1DF0ABEC15F0A2EF1DF09DEC4E
:103AD00016F0A2EF1DF0D5EC12F0A2EF1DF08FEC66
:103AE00017F0A2EF1DF0C7EC13F0A2EF1DF0B9EC38
:103AF00014F0A2EF1DF07CC17AF17DC17BF10101D0
:103B00007B51000AD8B487EF1DF0A2EF1DF07A5167
:103B1000000AD8B463EF1DF0010AD8B467EF1DF0B6
:103B2000030AD8B46BEF1DF0010AD8B46FEF1DF093
:103B3000070AD8B473EF1DF0010AD8B477EF1DF06F
:103B4000A2EF1DF001017E4B7F2B7FBFB1EF1DF077
:103B50007F5109E1080E7E5DD8A0B1EF1DF0B3EFF3
:103B60001DF050EF1DF0120003500410D8B4BBEF4D
:103B70001DF0BDEF1DF0C6EF1DF003500410D8A4DA
:103B8000C4EF1DF0C6EF1DF0CBEF1DF0015037EC78
:103B900021F018EF1EF020EE04F00350D926045057
:103BA000DA22DE50DE10D8B4D8EF1DF0DAEF1DF0C7
:103BB000F5EF1DF020EE04F00350D9260450DA2270
:103BC00010EE02F00350E1260450E222DE50E65CE3
:103BD000E650800A096EDE50800A0958D8B0F3EF2B
:103BE0001DF0F5EF1DF018EF1EF020EE02F003506F
:103BF000D9260450DA22DECF05F0DDCF06F003C06F
:103C0000D9FF04C0DAFFDECF07F0DDCF08F00550A2
:103C10000724D96E06500820DA6E01C0DFFF20EEBF
:103C200002F00350D9260450DA22DE2A000EDD22EB
:103C30001200000E0101576F55BF23EF1EF021EF58
:103C40001EF029EF1EF0546D551FD8B0552B010EF4
:103C5000576F53BF30EF1EF02EEF1EF036EF1EF001
:103C6000526D531FD8B0532B010E571B000E596FC6
:103C7000000E586F54515511D8B441EF1EF043EF68
:103C80001EF06BEF1EF0010E566F4BEF1EF0D8903A
:103C900054375537562B55AF50EF1EF052EF1EF0EC
:103CA00047EF1EF0D890583759375451525D55514F
:103CB0005359D8A05EEF1EF060EF1EF065EF1EF0C6
:103CC0005451525F5551535B5881D89055335433FA
:103CD000562F52EF1EF05751D8B471EF1EF073EF0C
:103CE0001EF077EF1EF0586D591FD8B0592B58C1F0
:103CF00052F159C153F11200000E0101796F75BFE5
:103D000086EF1EF084EF1EF08CEF1EF0746D751FB1
:103D1000D8B0752B010E796F77BF93EF1EF091EF3E
:103D20001EF097EF1EF0766D771FD8B0772B765187
:103D30007711D8B49EEF1EF0A0EF1EF0C4EF1EF076
:103D4000010E786FA8EF1EF0D89076377737782B72
:103D500077AFADEF1EF0AFEF1EF0A4EF1EF076517F
:103D6000745D77517559D8A0B8EF1EF0BAEF1EF008
:103D7000BEEF1EF07651745F7751755BD890773344
:103D80007633782FAFEF1EF07951D8B4CAEF1EF01A
:103D9000CCEF1EF0D0EF1EF0746D751FD8B0752BF0
:103DA00074C174F175C175F11200000E066E02BE89
:103DB000DEEF1EF0DCEF1EF0E4EF1EF0016C021EE1
:103DC000D8B0022A010E066E04BEEBEF1EF0E9EF3A
:103DD0001EF0EFEF1EF0036C041ED8B0042A03504F
:103DE0000410D8B4F6EF1EF0F8EF1EF01CEF1FF031
:103DF000010E056E00EF1FF0D89003360436052A39
:103E000004AE05EF1FF007EF1FF0FCEF1EF00350AC
:103E1000015C04500258D8A010EF1FF012EF1FF001
:103E200016EF1FF00350015E0450025AD89004327E
:103E30000332052E07EF1FF00650D8B422EF1FF013
:103E400024EF1FF028EF1FF0016C021ED8B0022AE9
:103E500001C001F002C002F0120021EE62F0070E74
:103E6000DE6AE806FDE2010152A139EF1FF03BEFE7
:103E70001FF04BEF1FF05A5162275B5163235C51D7
:103E800064235D5165235E5166235F516723605152
:103E9000682361516923D8905A375B375C375D37A7
:103EA0005E375F3760376137D890593358335733AF
:103EB00056335533543353335233525153115411F3
:103EC00055115611571158115911D8A46AEF1FF006
:103ED0006CEF1FF033EF1FF062C152F163C153F179
:103EE00064C154F165C155F166C156F167C157F11E
:103EF00068C158F169C159F11200020E010152194D
:103F00005311D8A486EF1FF088EF1FF08CEF1FF03D
:103F1000000E536F060E526F030E52195311D8A4A0
:103F200094EF1FF096EF1FF09AEF1FF0000E536F03
:103F3000070E526F52C154F154475447C25054199E
:103F4000C30B5419C26EC282C280C2B2AAEF1FF064
:103F5000ACEF1FF0A5EF1FF0C350C4CF54F1010127
:103F6000556B54C155F1546B5411566F5551576FE1
:103F700056C152F157C153F11200000E076E000EE8
:103F8000066EDDEF1FF006500224046E075003207A
:103F9000056E04C0F6FF05C0F7FFF86A050EF7646A
:103FA00003D00800F55005D0F6CFE1FFF7CFE2FFD0
:103FB000E75028EC21F0064A072A06500224046E36
:103FC00007500320056E04C0F6FF05C0F7FFF86A2E
:103FD000050EF76403D00800F55005D0F6CFE1FFD9
:103FE000F7CFE2FFE7500009D8A4F9EF1FF0FBEF8D
:103FF0001FF0C3EF1FF0120002EF20F0014A022A67
:10400000034A042A01C0D9FF02C0DAFFDF50056E5F
:1040100003C0F6FF04C0F7FF0800F5500518D8A448
:1040200014EF20F016EF20F022EF20F001C0D9FFAE
:1040300002C0DAFFDF50D8A420EF20F022EF20F0FA
:10404000FEEF1FF001C0D9FF02C0DAFFDF50056E9E
:1040500003C0F6FF04C0F7FF0800F550055C016ED1
:10406000026AD8A0020612002CC030F02DC031F038
:10407000000E4C6E000E4B6E50EF20F02AC020F068
:104080002BC021F0300E226E000E236E2EC024F0C5
:104090002FC025F042EC19F020504B2621504C2225
:1040A00030C0F6FF31C0F7FF0800F5500009D8A472
:1040B0005CEF20F05EEF20F03EEF20F04BC02AF0E6
:1040C0004CC02BF01200660EF66E420EF76E000E1C
:1040D000F86E00EE67F010EE07F00900F5CFEEFF86
:1040E000E550E150FAE101EE00F0520EEE6AE8060A
:1040F000FDE100EEB9F0300EEE6AE806FDE100EEFB
:104100004BF01C0EEE6AE806FDE16E906E92000E1A
:10411000F86E0001F8EF07F0360E3A6E000E3B6EB7
:1041200032C03CF033C03DF0000E3F6E000E3E6EDC
:10413000000E416E000E406E3C0E2A6E000E2B6E7D
:1041400034C02CF035C02DF03A0E2E6E000E2F6EBE
:1041500034EC20F03E503224D96E3F503320DA6EDA
:10416000000EDF6E1200000E026E000E016E530E86
:104170000124D96E000E0220DA6E000EDF6E014AB5
:10418000022A02BECDEF20F0025009E10A0E015CC6
:10419000D8A0CDEF20F0CFEF20F0B7EF20F0000E49
:1041A0000001E06F000EDF6F120001C003F002C0DB
:1041B00004F0DDEF20F0014A022A01C0D9FF02C05D
:1041C000DAFFDF50D8A4E7EF20F0E9EF20F0DBEFD3
:1041D00020F00350015C016E04500258026E120080
:1041E000530E0001DF25D96E000EE021DA6EAECF4E
:1041F000DFFFDF4BE02BDFC001F0E0C002F0000E7C
:10420000046E0A0E036ED5EC1EF001C0DFF002C092
:10421000E0F01200948C948EAC98B896AC84190E91
:10422000AF6EAB8E9E889E9AAC8AAB889D989F9805
:104230009D8A9F9A12009268000EC16E900EC06E09
:10424000C08EF80EC016000EC46E000EC36E1200B3
:10425000016EACA22EEF21F030EF21F029EF21F01A
:0D42600001C0ADFF1200286E756C6C2900C6
:02426E0012003C
:020000040020DA
:08000000FFFFFFFFFFFFFFFF00
:020000040030CA
:0E000000FF081F1EFF8181FF0FC00FE00F40A1
:00000001FF
